{
  "_format": "hh3-artifact-1",
  "contractName": "StockToken",
  "sourceName": "contracts/StockToken.sol",
  "abi": [
    {
      "inputs": [
        {
          "internalType": "string",
          "name": "name_",
          "type": "string"
        },
        {
          "internalType": "string",
          "name": "symbol_",
          "type": "string"
        }
      ],
      "stateMutability": "nonpayable",
      "type": "constructor"
    },
    {
      "inputs": [
        {
          "internalType": "address",
          "name": "spender",
          "type": "address"
        },
        {
          "internalType": "uint256",
          "name": "allowance",
          "type": "uint256"
        },
        {
          "internalType": "uint256",
          "name": "needed",
          "type": "uint256"
        }
      ],
      "name": "ERC20InsufficientAllowance",
      "type": "error"
    },
    {
      "inputs": [
        {
          "internalType": "address",
          "name": "sender",
          "type": "address"
        },
        {
          "internalType": "uint256",
          "name": "balance",
          "type": "uint256"
        },
        {
          "internalType": "uint256",
          "name": "needed",
          "type": "uint256"
        }
      ],
      "name": "ERC20InsufficientBalance",
      "type": "error"
    },
    {
      "inputs": [
        {
          "internalType": "address",
          "name": "approver",
          "type": "address"
        }
      ],
      "name": "ERC20InvalidApprover",
      "type": "error"
    },
    {
      "inputs": [
        {
          "internalType": "address",
          "name": "receiver",
          "type": "address"
        }
      ],
      "name": "ERC20InvalidReceiver",
      "type": "error"
    },
    {
      "inputs": [
        {
          "internalType": "address",
          "name": "sender",
          "type": "address"
        }
      ],
      "name": "ERC20InvalidSender",
      "type": "error"
    },
    {
      "inputs": [
        {
          "internalType": "address",
          "name": "spender",
          "type": "address"
        }
      ],
      "name": "ERC20InvalidSpender",
      "type": "error"
    },
    {
      "inputs": [
        {
          "internalType": "address",
          "name": "owner",
          "type": "address"
        }
      ],
      "name": "OwnableInvalidOwner",
      "type": "error"
    },
    {
      "inputs": [
        {
          "internalType": "address",
          "name": "account",
          "type": "address"
        }
      ],
      "name": "OwnableUnauthorizedAccount",
      "type": "error"
    },
    {
      "anonymous": false,
      "inputs": [
        {
          "indexed": true,
          "internalType": "address",
          "name": "owner",
          "type": "address"
        },
        {
          "indexed": true,
          "internalType": "address",
          "name": "spender",
          "type": "address"
        },
        {
          "indexed": false,
          "internalType": "uint256",
          "name": "value",
          "type": "uint256"
        }
      ],
      "name": "Approval",
      "type": "event"
    },
    {
      "anonymous": false,
      "inputs": [
        {
          "indexed": true,
          "internalType": "address",
          "name": "previousOwner",
          "type": "address"
        },
        {
          "indexed": true,
          "internalType": "address",
          "name": "newOwner",
          "type": "address"
        }
      ],
      "name": "OwnershipTransferred",
      "type": "event"
    },
    {
      "anonymous": false,
      "inputs": [
        {
          "indexed": true,
          "internalType": "address",
          "name": "from",
          "type": "address"
        },
        {
          "indexed": true,
          "internalType": "address",
          "name": "to",
          "type": "address"
        },
        {
          "indexed": false,
          "internalType": "uint256",
          "name": "value",
          "type": "uint256"
        }
      ],
      "name": "Transfer",
      "type": "event"
    },
    {
      "anonymous": false,
      "inputs": [
        {
          "indexed": true,
          "internalType": "address",
          "name": "from",
          "type": "address"
        },
        {
          "indexed": true,
          "internalType": "address",
          "name": "to",
          "type": "address"
        },
        {
          "indexed": false,
          "internalType": "uint256",
          "name": "value",
          "type": "uint256"
        },
        {
          "indexed": false,
          "internalType": "uint256",
          "name": "uiValue",
          "type": "uint256"
        }
      ],
      "name": "TransferWithScaledUI",
      "type": "event"
    },
    {
      "anonymous": false,
      "inputs": [
        {
          "indexed": false,
          "internalType": "uint256",
          "name": "oldMultiplier",
          "type": "uint256"
        },
        {
          "indexed": false,
          "internalType": "uint256",
          "name": "newMultiplier",
          "type": "uint256"
        },
        {
          "indexed": false,
          "internalType": "uint256",
          "name": "effectiveAtTimestamp",
          "type": "uint256"
        }
      ],
      "name": "UIMultiplierUpdated",
      "type": "event"
    },
    {
      "inputs": [],
      "name": "MULTIPLIER_SCALE",
      "outputs": [
        {
          "internalType": "uint256",
          "name": "",
          "type": "uint256"
        }
      ],
      "stateMutability": "view",
      "type": "function"
    },
    {
      "inputs": [
        {
          "internalType": "address",
          "name": "owner",
          "type": "address"
        },
        {
          "internalType": "address",
          "name": "spender",
          "type": "address"
        }
      ],
      "name": "allowance",
      "outputs": [
        {
          "internalType": "uint256",
          "name": "",
          "type": "uint256"
        }
      ],
      "stateMutability": "view",
      "type": "function"
    },
    {
      "inputs": [
        {
          "internalType": "address",
          "name": "spender",
          "type": "address"
        },
        {
          "internalType": "uint256",
          "name": "value",
          "type": "uint256"
        }
      ],
      "name": "approve",
      "outputs": [
        {
          "internalType": "bool",
          "name": "",
          "type": "bool"
        }
      ],
      "stateMutability": "nonpayable",
      "type": "function"
    },
    {
      "inputs": [
        {
          "internalType": "address",
          "name": "account",
          "type": "address"
        }
      ],
      "name": "balanceOf",
      "outputs": [
        {
          "internalType": "uint256",
          "name": "",
          "type": "uint256"
        }
      ],
      "stateMutability": "view",
      "type": "function"
    },
    {
      "inputs": [
        {
          "internalType": "address",
          "name": "account",
          "type": "address"
        }
      ],
      "name": "balanceOfUI",
      "outputs": [
        {
          "internalType": "uint256",
          "name": "",
          "type": "uint256"
        }
      ],
      "stateMutability": "view",
      "type": "function"
    },
    {
      "inputs": [],
      "name": "decimals",
      "outputs": [
        {
          "internalType": "uint8",
          "name": "",
          "type": "uint8"
        }
      ],
      "stateMutability": "view",
      "type": "function"
    },
    {
      "inputs": [],
      "name": "effectiveAt",
      "outputs": [
        {
          "internalType": "uint256",
          "name": "",
          "type": "uint256"
        }
      ],
      "stateMutability": "view",
      "type": "function"
    },
    {
      "inputs": [
        {
          "internalType": "address",
          "name": "to",
          "type": "address"
        },
        {
          "internalType": "uint256",
          "name": "amount",
          "type": "uint256"
        }
      ],
      "name": "mint",
      "outputs": [],
      "stateMutability": "nonpayable",
      "type": "function"
    },
    {
      "inputs": [],
      "name": "name",
      "outputs": [
        {
          "internalType": "string",
          "name": "",
          "type": "string"
        }
      ],
      "stateMutability": "view",
      "type": "function"
    },
    {
      "inputs": [],
      "name": "newUIMultiplier",
      "outputs": [
        {
          "internalType": "uint256",
          "name": "",
          "type": "uint256"
        }
      ],
      "stateMutability": "view",
      "type": "function"
    },
    {
      "inputs": [],
      "name": "owner",
      "outputs": [
        {
          "internalType": "address",
          "name": "",
          "type": "address"
        }
      ],
      "stateMutability": "view",
      "type": "function"
    },
    {
      "inputs": [],
      "name": "renounceOwnership",
      "outputs": [],
      "stateMutability": "nonpayable",
      "type": "function"
    },
    {
      "inputs": [
        {
          "internalType": "uint256",
          "name": "newMultiplier_",
          "type": "uint256"
        },
        {
          "internalType": "uint256",
          "name": "effectiveAt_",
          "type": "uint256"
        }
      ],
      "name": "scheduleUIMultiplierUpdate",
      "outputs": [],
      "stateMutability": "nonpayable",
      "type": "function"
    },
    {
      "inputs": [],
      "name": "symbol",
      "outputs": [
        {
          "internalType": "string",
          "name": "",
          "type": "string"
        }
      ],
      "stateMutability": "view",
      "type": "function"
    },
    {
      "inputs": [],
      "name": "totalSupply",
      "outputs": [
        {
          "internalType": "uint256",
          "name": "",
          "type": "uint256"
        }
      ],
      "stateMutability": "view",
      "type": "function"
    },
    {
      "inputs": [],
      "name": "totalSupplyUI",
      "outputs": [
        {
          "internalType": "uint256",
          "name": "",
          "type": "uint256"
        }
      ],
      "stateMutability": "view",
      "type": "function"
    },
    {
      "inputs": [
        {
          "internalType": "address",
          "name": "to",
          "type": "address"
        },
        {
          "internalType": "uint256",
          "name": "value",
          "type": "uint256"
        }
      ],
      "name": "transfer",
      "outputs": [
        {
          "internalType": "bool",
          "name": "",
          "type": "bool"
        }
      ],
      "stateMutability": "nonpayable",
      "type": "function"
    },
    {
      "inputs": [
        {
          "internalType": "address",
          "name": "from",
          "type": "address"
        },
        {
          "internalType": "address",
          "name": "to",
          "type": "address"
        },
        {
          "internalType": "uint256",
          "name": "value",
          "type": "uint256"
        }
      ],
      "name": "transferFrom",
      "outputs": [
        {
          "internalType": "bool",
          "name": "",
          "type": "bool"
        }
      ],
      "stateMutability": "nonpayable",
      "type": "function"
    },
    {
      "inputs": [
        {
          "internalType": "address",
          "name": "newOwner",
          "type": "address"
        }
      ],
      "name": "transferOwnership",
      "outputs": [],
      "stateMutability": "nonpayable",
      "type": "function"
    },
    {
      "inputs": [],
      "name": "uiMultiplier",
      "outputs": [
        {
          "internalType": "uint256",
          "name": "",
          "type": "uint256"
        }
      ],
      "stateMutability": "view",
      "type": "function"
    }
  ],
  "bytecode": "0x608060405234801561000f575f5ffd5b50604051610ed9380380610ed983398101604081905261002e91610185565b338282600361003d838261026e565b50600461004a828261026e565b5050506001600160a01b03811661007a57604051631e4fbdf760e01b81525f600482015260240160405180910390fd5b61008381610097565b5050670de0b6b3a764000060065550610328565b600580546001600160a01b038381166001600160a01b0319831681179093556040519116919082907f8be0079c531659141344cd1fd0a4f28419497f9722a3daafe3b4186f6b6457e0905f90a35050565b634e487b7160e01b5f52604160045260245ffd5b5f82601f83011261010b575f5ffd5b81516001600160401b03811115610124576101246100e8565b604051601f8201601f19908116603f011681016001600160401b0381118282101715610152576101526100e8565b604052818152838201602001851015610169575f5ffd5b8160208501602083015e5f918101602001919091529392505050565b5f5f60408385031215610196575f5ffd5b82516001600160401b038111156101ab575f5ffd5b6101b7858286016100fc565b602085015190935090506001600160401b038111156101d4575f5ffd5b6101e0858286016100fc565b9150509250929050565b600181811c908216806101fe57607f821691505b60208210810361021c57634e487b7160e01b5f52602260045260245ffd5b50919050565b601f82111561026957805f5260205f20601f840160051c810160208510156102475750805b601f840160051c820191505b81811015610266575f8155600101610253565b50505b505050565b81516001600160401b03811115610287576102876100e8565b61029b8161029584546101ea565b84610222565b6020601f8211600181146102cd575f83156102b65750848201515b5f19600385901b1c1916600184901b178455610266565b5f84815260208120601f198516915b828110156102fc57878501518255602094850194600190920191016102dc565b508482101561031957868401515f19600387901b60f8161c191681555b50505050600190811b01905550565b610ba4806103355f395ff3fe608060405234801561000f575f5ffd5b5060043610610127575f3560e01c80638da5cb5b116100a9578063a9059cbb1161006e578063a9059cbb14610242578063dc76700714610255578063dd62ed3e1461025d578063f2fde38b14610295578063feb59948146102a8575f5ffd5b80638da5cb5b1461020757806395d89b411461022257806397a4064f1461022a5780639bea642914610232578063a60bf13d1461023a575f5ffd5b806340c10f19116100ef57806340c10f19146101a0578063437a9958146101b557806357314870146101c857806370a08231146101d7578063715018a6146101ff575f5ffd5b806306fdde031461012b578063095ea7b31461014957806318160ddd1461016c57806323b872dd1461017e578063313ce56714610191575b5f5ffd5b6101336102bb565b60405161014091906109b6565b60405180910390f35b61015c610157366004610a06565b61034b565b6040519015158152602001610140565b6002545b604051908152602001610140565b61015c61018c366004610a2e565b610364565b60405160128152602001610140565b6101b36101ae366004610a06565b610387565b005b6101706101c3366004610a68565b61039d565b610170670de0b6b3a764000081565b6101706101e5366004610a68565b6001600160a01b03165f9081526020819052604090205490565b6101b36103db565b6005546040516001600160a01b039091168152602001610140565b6101336103ee565b600854610170565b6101706103fd565b61017061042b565b61015c610250366004610a06565b610453565b600754610170565b61017061026b366004610a88565b6001600160a01b039182165f90815260016020908152604080832093909416825291909152205490565b6101b36102a3366004610a68565b610460565b6101b36102b6366004610ab9565b6104a2565b6060600380546102ca90610ad9565b80601f01602080910402602001604051908101604052809291908181526020018280546102f690610ad9565b80156103415780601f1061031857610100808354040283529160200191610341565b820191905f5260205f20905b81548152906001019060200180831161032457829003601f168201915b5050505050905090565b5f336103588185856105aa565b60019150505b92915050565b5f336103718582856105bc565b61037c858585610638565b506001949350505050565b61038f610695565b61039982826106c2565b5050565b5f670de0b6b3a76400006103af61042b565b6001600160a01b0384165f908152602081905260409020546103d19190610b25565b61035e9190610b3c565b6103e3610695565b6103ec5f6106f6565b565b6060600480546102ca90610ad9565b5f670de0b6b3a764000061040f61042b565b60025461041c9190610b25565b6104269190610b3c565b905090565b5f6008545f1415801561044057506008544210155b1561044c575060075490565b5060065490565b5f33610358818585610638565b610468610695565b6001600160a01b03811661049657604051631e4fbdf760e01b81525f60048201526024015b60405180910390fd5b61049f816106f6565b50565b6104aa610695565b5f82116104f95760405162461bcd60e51b815260206004820152601e60248201527f53746f636b546f6b656e3a206d756c7469706c696572206973207a65726f0000604482015260640161048d565b428110156105495760405162461bcd60e51b815260206004820152601f60248201527f53746f636b546f6b656e3a20656666656374697665417420696e207061737400604482015260640161048d565b5f61055261042b565b60068190556007849055600883905560408051828152602081018690529081018490529091507f2205df4534432b2f60654a3fdb48737ffdaf3e9edb1a498bd985bc026b15b0559060600160405180910390a1505050565b6105b78383836001610747565b505050565b6001600160a01b038381165f908152600160209081526040808320938616835292905220545f19811015610632578181101561062457604051637dc7a0d960e11b81526001600160a01b0384166004820152602481018290526044810183905260640161048d565b61063284848484035f610747565b50505050565b6001600160a01b03831661066157604051634b637e8f60e11b81525f600482015260240161048d565b6001600160a01b03821661068a5760405163ec442f0560e01b81525f600482015260240161048d565b6105b7838383610819565b6005546001600160a01b031633146103ec5760405163118cdaa760e01b815233600482015260240161048d565b6001600160a01b0382166106eb5760405163ec442f0560e01b81525f600482015260240161048d565b6103995f8383610819565b600580546001600160a01b038381166001600160a01b0319831681179093556040519116919082907f8be0079c531659141344cd1fd0a4f28419497f9722a3daafe3b4186f6b6457e0905f90a35050565b6001600160a01b0384166107705760405163e602df0560e01b81525f600482015260240161048d565b6001600160a01b03831661079957604051634a1406b160e11b81525f600482015260240161048d565b6001600160a01b038085165f908152600160209081526040808320938716835292905220829055801561063257826001600160a01b0316846001600160a01b03167f8c5be1e5ebec7d5bd14f71427d1e84f3dd0314c0f7b2291e5b200ac8c7c3b9258460405161080b91815260200190565b60405180910390a350505050565b61082483838361089d565b816001600160a01b0316836001600160a01b03167f37e7f0db430edc9dd31bc66f25f8449353aa0818f503b906747dd8f286cd380283670de0b6b3a764000061086b61042b565b6108759087610b25565b61087f9190610b3c565b604080519283526020830191909152015b60405180910390a3505050565b6001600160a01b0383166108c7578060025f8282546108bc9190610b5b565b909155506109379050565b6001600160a01b0383165f90815260208190526040902054818110156109195760405163391434e360e21b81526001600160a01b0385166004820152602481018290526044810183905260640161048d565b6001600160a01b0384165f9081526020819052604090209082900390555b6001600160a01b03821661095357600280548290039055610971565b6001600160a01b0382165f9081526020819052604090208054820190555b816001600160a01b0316836001600160a01b03167fddf252ad1be2c89b69c2b068fc378daa952ba7f163c4a11628f55a4df523b3ef8360405161089091815260200190565b602081525f82518060208401528060208501604085015e5f604082850101526040601f19601f83011684010191505092915050565b80356001600160a01b0381168114610a01575f5ffd5b919050565b5f5f60408385031215610a17575f5ffd5b610a20836109eb565b946020939093013593505050565b5f5f5f60608486031215610a40575f5ffd5b610a49846109eb565b9250610a57602085016109eb565b929592945050506040919091013590565b5f60208284031215610a78575f5ffd5b610a81826109eb565b9392505050565b5f5f60408385031215610a99575f5ffd5b610aa2836109eb565b9150610ab0602084016109eb565b90509250929050565b5f5f60408385031215610aca575f5ffd5b50508035926020909101359150565b600181811c90821680610aed57607f821691505b602082108103610b0b57634e487b7160e01b5f52602260045260245ffd5b50919050565b634e487b7160e01b5f52601160045260245ffd5b808202811582820484141761035e5761035e610b11565b5f82610b5657634e487b7160e01b5f52601260045260245ffd5b500490565b8082018082111561035e5761035e610b1156fea264697066735822122045132d6e9f091f5c6a4c3eccb57251422200955a971f1bad99f46692a6027a7064736f6c634300081c0033",
  "linkReferences": {},
  "deployedLinkReferences": {},
  "immutableReferences": {},
  "inputSourceName": "project/contracts/StockToken.sol",
  "buildInfoId": "solc-0_8_28-dbcc57bfddaf10f5f9e5c2b0a0710d9c06807207"
}