{
  "_format": "hh3-artifact-1",
  "contractName": "StockSwapReceiver",
  "sourceName": "contracts/crosschain/StockSwapReceiver.sol",
  "abi": [
    {
      "inputs": [
        {
          "internalType": "address",
          "name": "router_",
          "type": "address"
        },
        {
          "internalType": "address",
          "name": "stockToken_",
          "type": "address"
        },
        {
          "internalType": "address",
          "name": "paymentToken_",
          "type": "address"
        },
        {
          "internalType": "address",
          "name": "priceFeed_",
          "type": "address"
        },
        {
          "internalType": "uint256",
          "name": "maxStaleness_",
          "type": "uint256"
        }
      ],
      "stateMutability": "nonpayable",
      "type": "constructor"
    },
    {
      "inputs": [
        {
          "internalType": "address",
          "name": "router",
          "type": "address"
        }
      ],
      "name": "InvalidRouter",
      "type": "error"
    },
    {
      "inputs": [],
      "name": "NoRefundAvailable",
      "type": "error"
    },
    {
      "inputs": [],
      "name": "OnlySelf",
      "type": "error"
    },
    {
      "inputs": [
        {
          "internalType": "address",
          "name": "owner",
          "type": "address"
        }
      ],
      "name": "OwnableInvalidOwner",
      "type": "error"
    },
    {
      "inputs": [
        {
          "internalType": "address",
          "name": "account",
          "type": "address"
        }
      ],
      "name": "OwnableUnauthorizedAccount",
      "type": "error"
    },
    {
      "inputs": [
        {
          "internalType": "address",
          "name": "token",
          "type": "address"
        }
      ],
      "name": "SafeERC20FailedOperation",
      "type": "error"
    },
    {
      "inputs": [
        {
          "internalType": "uint64",
          "name": "chainSelector",
          "type": "uint64"
        },
        {
          "internalType": "address",
          "name": "sender",
          "type": "address"
        }
      ],
      "name": "SourceNotAllowed",
      "type": "error"
    },
    {
      "anonymous": false,
      "inputs": [
        {
          "indexed": true,
          "internalType": "address",
          "name": "recipient",
          "type": "address"
        },
        {
          "indexed": false,
          "internalType": "uint256",
          "name": "amount",
          "type": "uint256"
        }
      ],
      "name": "FailedSwapWithdrawn",
      "type": "event"
    },
    {
      "anonymous": false,
      "inputs": [
        {
          "indexed": true,
          "internalType": "address",
          "name": "previousOwner",
          "type": "address"
        },
        {
          "indexed": true,
          "internalType": "address",
          "name": "newOwner",
          "type": "address"
        }
      ],
      "name": "OwnershipTransferred",
      "type": "event"
    },
    {
      "anonymous": false,
      "inputs": [
        {
          "indexed": true,
          "internalType": "bytes32",
          "name": "messageId",
          "type": "bytes32"
        },
        {
          "indexed": true,
          "internalType": "address",
          "name": "recipient",
          "type": "address"
        },
        {
          "indexed": false,
          "internalType": "uint256",
          "name": "amountIn",
          "type": "uint256"
        },
        {
          "indexed": false,
          "internalType": "uint256",
          "name": "amountOut",
          "type": "uint256"
        },
        {
          "indexed": false,
          "internalType": "uint256",
          "name": "price",
          "type": "uint256"
        }
      ],
      "name": "SwapExecuted",
      "type": "event"
    },
    {
      "anonymous": false,
      "inputs": [
        {
          "indexed": true,
          "internalType": "bytes32",
          "name": "messageId",
          "type": "bytes32"
        },
        {
          "indexed": true,
          "internalType": "address",
          "name": "recipient",
          "type": "address"
        },
        {
          "indexed": false,
          "internalType": "uint256",
          "name": "amountIn",
          "type": "uint256"
        },
        {
          "indexed": false,
          "internalType": "bytes",
          "name": "reason",
          "type": "bytes"
        }
      ],
      "name": "SwapFailed",
      "type": "event"
    },
    {
      "inputs": [],
      "name": "FEED_SCALE",
      "outputs": [
        {
          "internalType": "uint256",
          "name": "",
          "type": "uint256"
        }
      ],
      "stateMutability": "view",
      "type": "function"
    },
    {
      "inputs": [
        {
          "internalType": "uint64",
          "name": "chainSelector",
          "type": "uint64"
        },
        {
          "internalType": "address",
          "name": "sender",
          "type": "address"
        },
        {
          "internalType": "bool",
          "name": "allowed",
          "type": "bool"
        }
      ],
      "name": "allowlistSource",
      "outputs": [],
      "stateMutability": "nonpayable",
      "type": "function"
    },
    {
      "inputs": [
        {
          "internalType": "uint64",
          "name": "",
          "type": "uint64"
        },
        {
          "internalType": "address",
          "name": "",
          "type": "address"
        }
      ],
      "name": "allowlistedSources",
      "outputs": [
        {
          "internalType": "bool",
          "name": "",
          "type": "bool"
        }
      ],
      "stateMutability": "view",
      "type": "function"
    },
    {
      "inputs": [
        {
          "components": [
            {
              "internalType": "bytes32",
              "name": "messageId",
              "type": "bytes32"
            },
            {
              "internalType": "uint64",
              "name": "sourceChainSelector",
              "type": "uint64"
            },
            {
              "internalType": "bytes",
              "name": "sender",
              "type": "bytes"
            },
            {
              "internalType": "bytes",
              "name": "data",
              "type": "bytes"
            },
            {
              "components": [
                {
                  "internalType": "address",
                  "name": "token",
                  "type": "address"
                },
                {
                  "internalType": "uint256",
                  "name": "amount",
                  "type": "uint256"
                }
              ],
              "internalType": "struct Client.EVMTokenAmount[]",
              "name": "destTokenAmounts",
              "type": "tuple[]"
            }
          ],
          "internalType": "struct Client.Any2EVMMessage",
          "name": "message",
          "type": "tuple"
        }
      ],
      "name": "ccipReceive",
      "outputs": [],
      "stateMutability": "nonpayable",
      "type": "function"
    },
    {
      "inputs": [
        {
          "internalType": "address",
          "name": "recipient",
          "type": "address"
        },
        {
          "internalType": "uint256",
          "name": "amountIn",
          "type": "uint256"
        },
        {
          "internalType": "uint256",
          "name": "minAmountOut",
          "type": "uint256"
        }
      ],
      "name": "executeSwap",
      "outputs": [
        {
          "internalType": "uint256",
          "name": "amountOut",
          "type": "uint256"
        },
        {
          "internalType": "uint256",
          "name": "price",
          "type": "uint256"
        }
      ],
      "stateMutability": "nonpayable",
      "type": "function"
    },
    {
      "inputs": [],
      "name": "getRouter",
      "outputs": [
        {
          "internalType": "address",
          "name": "",
          "type": "address"
        }
      ],
      "stateMutability": "view",
      "type": "function"
    },
    {
      "inputs": [],
      "name": "maxStaleness",
      "outputs": [
        {
          "internalType": "uint256",
          "name": "",
          "type": "uint256"
        }
      ],
      "stateMutability": "view",
      "type": "function"
    },
    {
      "inputs": [],
      "name": "owner",
      "outputs": [
        {
          "internalType": "address",
          "name": "",
          "type": "address"
        }
      ],
      "stateMutability": "view",
      "type": "function"
    },
    {
      "inputs": [],
      "name": "paymentToken",
      "outputs": [
        {
          "internalType": "contract IERC20",
          "name": "",
          "type": "address"
        }
      ],
      "stateMutability": "view",
      "type": "function"
    },
    {
      "inputs": [],
      "name": "priceFeed",
      "outputs": [
        {
          "internalType": "contract AggregatorV3Interface",
          "name": "",
          "type": "address"
        }
      ],
      "stateMutability": "view",
      "type": "function"
    },
    {
      "inputs": [
        {
          "internalType": "address",
          "name": "",
          "type": "address"
        }
      ],
      "name": "refunds",
      "outputs": [
        {
          "internalType": "uint256",
          "name": "",
          "type": "uint256"
        }
      ],
      "stateMutability": "view",
      "type": "function"
    },
    {
      "inputs": [],
      "name": "renounceOwnership",
      "outputs": [],
      "stateMutability": "nonpayable",
      "type": "function"
    },
    {
      "inputs": [],
      "name": "stockToken",
      "outputs": [
        {
          "internalType": "contract IERC20",
          "name": "",
          "type": "address"
        }
      ],
      "stateMutability": "view",
      "type": "function"
    },
    {
      "inputs": [
        {
          "internalType": "bytes4",
          "name": "interfaceId",
          "type": "bytes4"
        }
      ],
      "name": "supportsInterface",
      "outputs": [
        {
          "internalType": "bool",
          "name": "",
          "type": "bool"
        }
      ],
      "stateMutability": "pure",
      "type": "function"
    },
    {
      "inputs": [],
      "name": "totalRefunds",
      "outputs": [
        {
          "internalType": "uint256",
          "name": "",
          "type": "uint256"
        }
      ],
      "stateMutability": "view",
      "type": "function"
    },
    {
      "inputs": [
        {
          "internalType": "address",
          "name": "newOwner",
          "type": "address"
        }
      ],
      "name": "transferOwnership",
      "outputs": [],
      "stateMutability": "nonpayable",
      "type": "function"
    },
    {
      "inputs": [],
      "name": "withdrawFailedSwap",
      "outputs": [],
      "stateMutability": "nonpayable",
      "type": "function"
    },
    {
      "inputs": [
        {
          "internalType": "address",
          "name": "to",
          "type": "address"
        },
        {
          "internalType": "uint256",
          "name": "amount",
          "type": "uint256"
        }
      ],
      "name": "withdrawPayment",
      "outputs": [],
      "stateMutability": "nonpayable",
      "type": "function"
    },
    {
      "inputs": [
        {
          "internalType": "address",
          "name": "to",
          "type": "address"
        },
        {
          "internalType": "uint256",
          "name": "amount",
          "type": "uint256"
        }
      ],
      "name": "withdrawStock",
      "outputs": [],
      "stateMutability": "nonpayable",
      "type": "function"
    }
  ],
  "bytecode": "0x610120604052348015610010575f5ffd5b506040516115ca3803806115ca83398101604081905261002f91610126565b33856001600160a01b03811661005f576040516335fdcccd60e21b81525f60048201526024015b60405180910390fd5b6001600160a01b03908116608052811661008e57604051631e4fbdf760e01b81525f6004820152602401610056565b610097816100bc565b506001600160a01b0393841660a05291831660c05290911660e0526101005250610180565b5f80546001600160a01b038381166001600160a01b0319831681178455604051919092169283917f8be0079c531659141344cd1fd0a4f28419497f9722a3daafe3b4186f6b6457e09190a35050565b80516001600160a01b0381168114610121575f5ffd5b919050565b5f5f5f5f5f60a0868803121561013a575f5ffd5b6101438661010b565b94506101516020870161010b565b935061015f6040870161010b565b925061016d6060870161010b565b9150608086015190509295509295909350565b60805160a05160c05160e051610100516113c76102035f395f818161026201526106d101525f81816102000152818161052101526105f001525f8181610162015281816103910152818161047801526109d901525f81816102dd015281816107cf015281816108a7015261094c01525f81816102b401526108e301526113c75ff3fe608060405234801561000f575f5ffd5b506004361061011c575f3560e01c806385572ffb116100a9578063b0f479a11161006e578063b0f479a1146102b2578063baa8e786146102d8578063bc3da535146102ff578063ec0d21c21461031e578063f2fde38b14610326575f5ffd5b806385572ffb1461024a57806387cf46961461025d5780638c8bc974146102845780638da5cb5b14610297578063a8ed5ffe146102a7575f5ffd5b8063589663db116100ef578063589663db146101c95780635e685494146101dc578063715018a6146101f3578063741bef1a146101fb5780637fcf071714610222575f5ffd5b806301ffc9a7146101205780630e2cdba7146101485780633013ce291461015d5780633c2600e31461019c575b5f5ffd5b61013361012e366004610de6565b610339565b60405190151581526020015b60405180910390f35b61015b610156366004610e28565b61036f565b005b6101847f000000000000000000000000000000000000000000000000000000000000000081565b6040516001600160a01b03909116815260200161013f565b6101336101aa366004610e6d565b600160209081525f928352604080842090915290825290205460ff1681565b61015b6101d7366004610eaf565b6104a3565b6101e560035481565b60405190815260200161013f565b61015b6104ea565b6101847f000000000000000000000000000000000000000000000000000000000000000081565b610235610230366004610ef5565b6104fd565b6040805192835260208301919091520161013f565b61015b610258366004610f27565b6108d8565b6101e57f000000000000000000000000000000000000000000000000000000000000000081565b61015b610292366004610e28565b610937565b5f546001600160a01b0316610184565b6101e56305f5e10081565b7f0000000000000000000000000000000000000000000000000000000000000000610184565b6101847f000000000000000000000000000000000000000000000000000000000000000081565b6101e561030d366004610f5d565b60026020525f908152604090205481565b61015b610973565b61015b610334366004610f5d565b610a38565b5f6001600160e01b031982166385572ffb60e01b148061036957506001600160e01b031982166301ffc9a760e01b145b92915050565b610377610a72565b6003546040516370a0823160e01b815230600482015282907f00000000000000000000000000000000000000000000000000000000000000006001600160a01b0316906370a0823190602401602060405180830381865afa1580156103de573d5f5f3e3d5ffd5b505050506040513d601f19601f820116820180604052508101906104029190610f78565b61040c9190610fa3565b101561046b5760405162461bcd60e51b815260206004820152602360248201527f53746f636b5377617052656365697665723a20726566756e64732072657365726044820152621d995960ea1b60648201526084015b60405180910390fd5b61049f6001600160a01b037f0000000000000000000000000000000000000000000000000000000000000000168383610a9e565b5050565b6104ab610a72565b6001600160401b039092165f9081526001602090815260408083206001600160a01b03909416835292905220805491151560ff19909216919091179055565b6104f2610a72565b6104fb5f610ad8565b565b5f8033301461051f5760405163029a949d60e31b815260040160405180910390fd5b7f00000000000000000000000000000000000000000000000000000000000000006001600160a01b0316637706ba526040518163ffffffff1660e01b8152600401602060405180830381865afa15801561057b573d5f5f3e3d5ffd5b505050506040513d601f19601f8201168201806040525081019061059f9190610fb6565b156105ec5760405162461bcd60e51b815260206004820181905260248201527f53746f636b5377617052656365697665723a206f7261636c65207061757365646044820152606401610462565b5f5f7f00000000000000000000000000000000000000000000000000000000000000006001600160a01b031663feaf968c6040518163ffffffff1660e01b815260040160a060405180830381865afa15801561064a573d5f5f3e3d5ffd5b505050506040513d601f19601f8201168201806040525081019061066e9190610fea565b509350509250505f8213801561068357505f81115b6106cf5760405162461bcd60e51b815260206004820181905260248201527f53746f636b5377617052656365697665723a20696e76616c69642070726963656044820152606401610462565b7f00000000000000000000000000000000000000000000000000000000000000006106fa8242610fa3565b11156107485760405162461bcd60e51b815260206004820152601e60248201527f53746f636b5377617052656365697665723a207374616c6520707269636500006044820152606401610462565b819250826305f5e1008761075c9190611038565b610766919061104f565b9350848410156107b85760405162461bcd60e51b815260206004820152601b60248201527f53746f636b5377617052656365697665723a20736c69707061676500000000006044820152606401610462565b6040516370a0823160e01b815230600482015284907f00000000000000000000000000000000000000000000000000000000000000006001600160a01b0316906370a0823190602401602060405180830381865afa15801561081c573d5f5f3e3d5ffd5b505050506040513d601f19601f820116820180604052508101906108409190610f78565b101561089a5760405162461bcd60e51b8152602060048201526024808201527f53746f636b5377617052656365697665723a20696e73756666696369656e74206044820152631c1bdbdb60e21b6064820152608401610462565b6108ce6001600160a01b037f0000000000000000000000000000000000000000000000000000000000000000168886610a9e565b5050935093915050565b336001600160a01b037f00000000000000000000000000000000000000000000000000000000000000001614610923576040516335fdcccd60e21b8152336004820152602401610462565b61093461092f82611214565b610b27565b50565b61093f610a72565b61049f6001600160a01b037f0000000000000000000000000000000000000000000000000000000000000000168383610a9e565b335f90815260026020526040812054908190036109a35760405163e49c14cb60e01b815260040160405180910390fd5b335f908152600260205260408120819055600380548392906109c6908490610fa3565b90915550610a0090506001600160a01b037f0000000000000000000000000000000000000000000000000000000000000000163383610a9e565b60405181815233907f6c64f5aa4dabf7702b139969b340557c9c1999e9fbe94f235ad59798db396a869060200160405180910390a250565b610a40610a72565b6001600160a01b038116610a6957604051631e4fbdf760e01b81525f6004820152602401610462565b61093481610ad8565b5f546001600160a01b031633146104fb5760405163118cdaa760e01b8152336004820152602401610462565b610aab8383836001610d84565b610ad357604051635274afe760e01b81526001600160a01b0384166004820152602401610462565b505050565b5f80546001600160a01b038381166001600160a01b0319831681178455604051919092169283917f8be0079c531659141344cd1fd0a4f28419497f9722a3daafe3b4186f6b6457e09190a35050565b5f816020015190505f8260400151806020019051810190610b4891906112c5565b6001600160401b0383165f9081526001602090815260408083206001600160a01b038516845290915290205490915060ff16610bb157604051634c3e9caf60e11b81526001600160401b03831660048201526001600160a01b0382166024820152604401610462565b5f5f8460600151806020019051810190610bcb91906112e0565b915091505f85608001515f81518110610be657610be661130c565b6020908102919091018101510151604051637fcf071760e01b81526001600160a01b038516600482015260248101829052604481018490529091503090637fcf07179060640160408051808303815f875af1925050508015610c65575060408051601f3d908101601f19168201909252610c6291810190611320565b60015b610d2a573d808015610c92576040519150601f19603f3d011682016040523d82523d5f602084013e610c97565b606091505b506001600160a01b0384165f9081526002602052604081208054849290610cbf908490611342565b925050819055508160035f828254610cd79190611342565b909155505086516040516001600160a01b03861691907faa36d505313a7ba8b3040f75aefa74ef674d2c9722f3ed854f466f48936e189190610d1c9086908690611355565b60405180910390a350610d7c565b875160408051858152602081018590529081018390526001600160a01b03871691907f65501e0f26aa0035cfdb4b502ccd9d894679a945a24cd0896bed18b231db002a9060600160405180910390a350505b505050505050565b60405163a9059cbb60e01b5f8181526001600160a01b038616600452602485905291602083604481808b5af1925060015f51148316610dda578383151615610dce573d5f823e3d81fd5b5f873b113d1516831692505b60405250949350505050565b5f60208284031215610df6575f5ffd5b81356001600160e01b031981168114610e0d575f5ffd5b9392505050565b6001600160a01b0381168114610934575f5ffd5b5f5f60408385031215610e39575f5ffd5b8235610e4481610e14565b946020939093013593505050565b80356001600160401b0381168114610e68575f5ffd5b919050565b5f5f60408385031215610e7e575f5ffd5b610e8783610e52565b91506020830135610e9781610e14565b809150509250929050565b8015158114610934575f5ffd5b5f5f5f60608486031215610ec1575f5ffd5b610eca84610e52565b92506020840135610eda81610e14565b91506040840135610eea81610ea2565b809150509250925092565b5f5f5f60608486031215610f07575f5ffd5b8335610f1281610e14565b95602085013595506040909401359392505050565b5f60208284031215610f37575f5ffd5b81356001600160401b03811115610f4c575f5ffd5b820160a08185031215610e0d575f5ffd5b5f60208284031215610f6d575f5ffd5b8135610e0d81610e14565b5f60208284031215610f88575f5ffd5b5051919050565b634e487b7160e01b5f52601160045260245ffd5b8181038181111561036957610369610f8f565b5f60208284031215610fc6575f5ffd5b8151610e0d81610ea2565b805169ffffffffffffffffffff81168114610e68575f5ffd5b5f5f5f5f5f60a08688031215610ffe575f5ffd5b61100786610fd1565b6020870151604088015160608901519297509095509350915061102c60808701610fd1565b90509295509295909350565b808202811582820484141761036957610369610f8f565b5f8261106957634e487b7160e01b5f52601260045260245ffd5b500490565b634e487b7160e01b5f52604160045260245ffd5b604080519081016001600160401b03811182821017156110a4576110a461106e565b60405290565b60405160a081016001600160401b03811182821017156110a4576110a461106e565b604051601f8201601f191681016001600160401b03811182821017156110f4576110f461106e565b604052919050565b5f82601f83011261110b575f5ffd5b81356001600160401b038111156111245761112461106e565b611137601f8201601f19166020016110cc565b81815284602083860101111561114b575f5ffd5b816020850160208301375f918101602001919091529392505050565b5f82601f830112611176575f5ffd5b81356001600160401b0381111561118f5761118f61106e565b61119e60208260051b016110cc565b8082825260208201915060208360061b8601019250858311156111bf575f5ffd5b602085015b8381101561120a57604081880312156111db575f5ffd5b6111e3611082565b81356111ee81610e14565b81526020828101358183015290845292909201916040016111c4565b5095945050505050565b5f60a08236031215611224575f5ffd5b61122c6110aa565b8235815261123c60208401610e52565b602082015260408301356001600160401b03811115611259575f5ffd5b611265368286016110fc565b60408301525060608301356001600160401b03811115611283575f5ffd5b61128f368286016110fc565b60608301525060808301356001600160401b038111156112ad575f5ffd5b6112b936828601611167565b60808301525092915050565b5f602082840312156112d5575f5ffd5b8151610e0d81610e14565b5f5f604083850312156112f1575f5ffd5b82516112fc81610e14565b6020939093015192949293505050565b634e487b7160e01b5f52603260045260245ffd5b5f5f60408385031215611331575f5ffd5b505080516020909101519092909150565b8082018082111561036957610369610f8f565b828152604060208201525f82518060408401528060208501606085015e5f606082850101526060601f19601f830116840101915050939250505056fea26469706673582212208fb7c9dbfda8bcf1f231c031d55328567fa94dd27f0cc09f44f089e19a40f35464736f6c634300081c0033",
  "linkReferences": {},
  "deployedLinkReferences": {},
  "immutableReferences": {
    "14": [
      {
        "length": 32,
        "start": 692
      },
      {
        "length": 32,
        "start": 2275
      }
    ],
    "1285": [
      {
        "length": 32,
        "start": 733
      },
      {
        "length": 32,
        "start": 1999
      },
      {
        "length": 32,
        "start": 2215
      },
      {
        "length": 32,
        "start": 2380
      }
    ],
    "1289": [
      {
        "length": 32,
        "start": 354
      },
      {
        "length": 32,
        "start": 913
      },
      {
        "length": 32,
        "start": 1144
      },
      {
        "length": 32,
        "start": 2521
      }
    ],
    "1293": [
      {
        "length": 32,
        "start": 512
      },
      {
        "length": 32,
        "start": 1313
      },
      {
        "length": 32,
        "start": 1520
      }
    ],
    "1296": [
      {
        "length": 32,
        "start": 610
      },
      {
        "length": 32,
        "start": 1745
      }
    ]
  },
  "inputSourceName": "project/contracts/crosschain/StockSwapReceiver.sol",
  "buildInfoId": "solc-0_8_28-30265073a0966d1218b2b7515e25abf6090b4cbb"
}