{
  "_format": "hh3-artifact-1",
  "contractName": "StockViewer",
  "sourceName": "contracts/StockViewer.sol",
  "abi": [
    {
      "inputs": [
        {
          "internalType": "contract IERC20",
          "name": "stockToken",
          "type": "address"
        },
        {
          "internalType": "contract AggregatorV3Interface",
          "name": "priceFeed",
          "type": "address"
        },
        {
          "internalType": "address",
          "name": "user",
          "type": "address"
        },
        {
          "internalType": "uint256",
          "name": "maxStaleness",
          "type": "uint256"
        }
      ],
      "name": "holdingValueUsd",
      "outputs": [
        {
          "internalType": "uint256",
          "name": "",
          "type": "uint256"
        }
      ],
      "stateMutability": "view",
      "type": "function"
    },
    {
      "inputs": [
        {
          "internalType": "contract IERC8056",
          "name": "stockToken",
          "type": "address"
        },
        {
          "internalType": "address",
          "name": "user",
          "type": "address"
        }
      ],
      "name": "sharesOf",
      "outputs": [
        {
          "internalType": "uint256",
          "name": "",
          "type": "uint256"
        }
      ],
      "stateMutability": "view",
      "type": "function"
    }
  ],
  "bytecode": "0x6080604052348015600e575f5ffd5b5061051d8061001c5f395ff3fe608060405234801561000f575f5ffd5b5060043610610034575f3560e01c80630a7292f514610038578063b96cccdc1461005d575b5f5ffd5b61004b61004636600461035c565b610070565b60405190815260200160405180910390f35b61004b61006b366004610393565b6100e4565b60405163086f532b60e31b81526001600160a01b0382811660048301525f919084169063437a995890602401602060405180830381865afa1580156100b7573d5f5f3e3d5ffd5b505050506040513d601f19601f820116820180604052508101906100db91906103e1565b90505b92915050565b5f836001600160a01b0316637706ba526040518163ffffffff1660e01b8152600401602060405180830381865afa158015610121573d5f5f3e3d5ffd5b505050506040513d601f19601f8201168201806040525081019061014591906103f8565b156101975760405162461bcd60e51b815260206004820152601a60248201527f53746f636b5669657765723a206f7261636c652070617573656400000000000060448201526064015b60405180910390fd5b6040516370a0823160e01b81526001600160a01b0384811660048301525f91908716906370a0823190602401602060405180830381865afa1580156101de573d5f5f3e3d5ffd5b505050506040513d601f19601f8201168201806040525081019061020291906103e1565b90505f5f866001600160a01b031663feaf968c6040518163ffffffff1660e01b815260040160a060405180830381865afa158015610242573d5f5f3e3d5ffd5b505050506040513d601f19601f82011682018060405250810190610266919061043c565b509350509250505f8213801561027b57505f81115b6102c75760405162461bcd60e51b815260206004820152601a60248201527f53746f636b5669657765723a20696e76616c6964207072696365000000000000604482015260640161018e565b846102d2824261049e565b11156103205760405162461bcd60e51b815260206004820152601860248201527f53746f636b5669657765723a207374616c652070726963650000000000000000604482015260640161018e565b6305f5e10061032f83856104b1565b61033991906104c8565b98975050505050505050565b6001600160a01b0381168114610359575f5ffd5b50565b5f5f6040838503121561036d575f5ffd5b823561037881610345565b9150602083013561038881610345565b809150509250929050565b5f5f5f5f608085870312156103a6575f5ffd5b84356103b181610345565b935060208501356103c181610345565b925060408501356103d181610345565b9396929550929360600135925050565b5f602082840312156103f1575f5ffd5b5051919050565b5f60208284031215610408575f5ffd5b81518015158114610417575f5ffd5b9392505050565b805169ffffffffffffffffffff81168114610437575f5ffd5b919050565b5f5f5f5f5f60a08688031215610450575f5ffd5b6104598661041e565b6020870151604088015160608901519297509095509350915061047e6080870161041e565b90509295509295909350565b634e487b7160e01b5f52601160045260245ffd5b818103818111156100de576100de61048a565b80820281158282048414176100de576100de61048a565b5f826104e257634e487b7160e01b5f52601260045260245ffd5b50049056fea2646970667358221220bcf865f66f1f5f25c6bcdda82bf0a8c99b303580d8950207bb8851fe909e47c564736f6c634300081c0033",
  "linkReferences": {},
  "deployedLinkReferences": {},
  "immutableReferences": {},
  "inputSourceName": "project/contracts/StockViewer.sol",
  "buildInfoId": "solc-0_8_28-21ba5a736c2e02ceafb21e25cacb77880e6e0f3e"
}